:100000000C94AB000C9479030C9452030C94D30021
:100010000C94D3000C94D3000C94D3000C94D30014
:100020000C94D3000C94D3000C94D3000C94D30004
:100030000C94D3000C94D3000C94D3000C94D300F4
:100040000C9408030C94D3000C9408020C94E20165
:100050000C94D3000C94D3000C94D3000C94D300D4
:100060000C94D3000C94D30000000000240027005F
:100070002A00010204081020408001020408102018
:10008000010204081020040404040404040402020D
:1000900002020202030303030303434331313031FD
:1000A00020726164696F20696E697469616C697A34
:1000B00065642E004343313130315F4D415243532B
:1000C0005441544520004343313130315F5645524D
:1000D00053494F4E20004343313130315F5041523C
:1000E000544E554D2000646174613A200070616384
:1000F0006B65743A206C656E200064426D0072730B
:1001000073693A20006C71693A2000637263206E53
:100110006F74206F6B00526563656976656420704B
:1001200061636B65742E2E2E0000000000250028F0
:10013000002B000000000023002600290000000022
:100140000800020100000304070000000000000096
:100150000000FF0FEB0F11241FBECFEFD8E0DEBF72
:10016000CDBF22E0A4E3B1E001C01D92AD32B207E1
:10017000E1F711E0A0E0B1E0E8E7F6E202C00590A7
:100180000D92A433B107D9F710E0CAEAD0E004C059
:100190002197FE010E940D11C93AD107C9F70E94AB
:1001A0008D080C942F130C940000089580E090E0CB
:1001B0000895FC01538D448D252F30E0842F90E06D
:1001C000821B930B541710F0CF9608950197089552
:1001D000FC01918D828D981761F0828DDF01A80F4F
:1001E000B11D5D968C91928D9F5F9F73928F90E071
:1001F00008958FEF9FEF0895FC01918D828D9817E0
:1002000031F0828DE80FF11D858D90E008958FEF1C
:100210009FEF0895FC01918D228D892F90E0805CE5
:100220009F4F821B91098F73992708958FE491E066
:100230000E940A0121E0892B09F420E0822F089511
:10024000FC01848DDF01A80FB11DA35ABF4F2C9173
:10025000848D90E001968F739927848FA689B78942
:100260002C93A089B1898C9180648C93938D848D1B
:10027000981306C00288F389E02D80818F7D8083EA
:100280000895EF92FF920F931F93CF93DF93EC01AA
:1002900081E0888F9B8D8C8D981305C0E889F98942
:1002A000808185FD24C0F62E0B8D10E00F5F1F4F5F
:1002B0000F731127E02E8C8DE8120CC00FB607FCCF
:1002C000FACFE889F989808185FFF5CFCE010E94B8
:1002D0002001F1CF8B8DFE01E80FF11DE35AFF4F96
:1002E000F0820B8FEA89FB898081806207C0EE89EA
:1002F000FF896083E889F98980818064808381E057
:1003000090E0DF91CF911F910F91FF90EF900895B2
:10031000CF93DF93EC01888D8823C9F0EA89FB89AC
:10032000808185FD05C0A889B9898C9186FD0FC0A3
:100330000FB607FCF5CF808185FFF2CFA889B98978
:100340008C9185FFEDCFCE010E942001E7CFDF9198
:10035000CF91089580E090E0892B29F00E9416014A
:1003600081110C9400000895833081F028F48130CD
:1003700099F08230A1F008958730A9F08830B9F063
:100380008430D1F4809180008F7D03C08091800003
:100390008F7780938000089584B58F7702C084B5ED
:1003A0008F7D84BD08958091B0008F7703C08091C8
:1003B000B0008F7D8093B0000895089581E0809310
:1003C000340108951F920F920FB60F9211242F93AC
:1003D0003F934F935F936F937F938F939F93AF93CD
:1003E000BF93EF93FF938FE491E00E942001FF9170
:1003F000EF91BF91AF919F918F917F916F915F919D
:100400004F913F912F910F900FBE0F901F90189515
:100410001F920F920FB60F9211242F938F939F93D9
:10042000EF93FF93E0915F01F09160018081E09193
:100430006501F091660182FD12C090818091680192
:100440008F5F8F7320916901821751F0E0916801ED
:10045000F0E0E15BFE4F958F8093680101C08081E1
:10046000FF91EF919F918F912F910F900FBE0F9061
:100470001F901895CF93DF93282F30E0F901E35CAC
:10048000FE4F8491F901EE58FF4FD491F901EA57DC
:10049000FF4FC491CC2391F081110E94B401EC2F45
:1004A000F0E0EE0FFF1FED5CFE4FA591B491EC91D3
:1004B000ED2381E090E021F480E002C080E090E054
:1004C000DF91CF9108951F93CF93DF93282F30E0D2
:1004D000F901E35CFE4F8491F901EE58FF4FD4918E
:1004E000F901EA57FF4FC491CC23C9F0162F8111AF
:1004F0000E94B401EC2FF0E0EE0FFF1FE75DFE4F0E
:10050000A591B4918FB7F894111105C09C91ED2F6E
:10051000E095E92302C0EC91ED2BEC938FBFDF91C6
:10052000CF911F910895CF93DF9390E0FC01EE5897
:10053000FF4F2491FC01EA57FF4F8491882361F11A
:1005400090E0880F991FFC01E859FF4FC591D491A5
:10055000FC01E75DFE4FA591B491611109C09FB701
:10056000F8948881209582238883EC912E230BC0F8
:10057000623061F49FB7F8943881822F809583238D
:100580008883EC912E2B2C939FBF06C08FB7F894D5
:10059000E8812E2B28838FBFDF91CF910895CF93D1
:1005A000DF93EC0188859985009711F00E94A811CE
:1005B0008E8187FD05C060E0DF91CF910C9493029E
:1005C000DF91CF9108953FB7F89480914B019091BE
:1005D0004C01A0914D01B0914E0126B5A89B05C0DC
:1005E0002F3F19F00196A11DB11D3FBFBA2FA92FB2
:1005F000982F8827820F911DA11DB11DBC01CD012F
:1006000043E0660F771F881F991F4A95D1F7089519
:100610001F920F920FB60F9211242F933F938F9337
:100620009F93AF93BF938091470190914801A09110
:100630004901B0914A013091460126E0230F2D3740
:1006400020F40296A11DB11D05C029E8230F0396D1
:10065000A11DB11D2093460180934701909348014D
:10066000A0934901B0934A0180914B0190914C01B4
:10067000A0914D01B0914E010196A11DB11D809335
:100680004B0190934C01A0934D01B0934E01BF914B
:10069000AF919F918F913F912F910F900FBE0F902F
:1006A0001F9018951F920F920FB60F9211242F933F
:1006B0003F934F935F936F937F938F939F93AF93EA
:1006C000BF93EF93FF93E0910401F0910501099529
:1006D000FF91EF91BF91AF919F918F917F916F911A
:1006E0005F914F913F912F910F900FBE0F901F90F0
:1006F00018951F920F920FB60F9211242F933F93CC
:100700004F935F936F937F938F939F93AF93BF9319
:10071000EF93FF93E0910201F09103010995FF919E
:10072000EF91BF91AF919F918F917F916F915F9169
:100730004F913F912F910F900FBE0F901F901895E2
:100740008F929F92AF92BF92CF92DF92EF92FF92E1
:100750000F931F93CF93DF93FC01828193816817DE
:10076000790708F04CC04A01AA24BB24B82DC32E37
:10077000D42EE52EFF24AC2D922F8781882361F0A3
:10078000889E40011124B92DC89E60011124AD2D11
:10079000289FE00111249D2FD584C285E084F18437
:1007A000DC1208C09B01220F331F620F731F6E0DF6
:1007B0007F1D16C0660F771F660F771F6E0D7F1D9A
:1007C000052F112722273327EB01CD0DD11D8823BB
:1007D00029F0089F90011124232F01C0202F288386
:1007E0008285EB01C80FD11DB8838385EB01C80F4B
:1007F000D11DA8838485FB01E80FF11D9083DF9153
:10080000CF911F910F91FF90EF90DF90CF90BF900D
:10081000AF909F908F9008951F93CF93DF93EC013B
:10082000162F8981882331F08E8187FD03C060E017
:100830000E9493021E838981882341F061E0812F09
:100840000E94930260E0812F0E946302812F90E05A
:10085000FC01EA57FF4FE491F0E0EE0FFF1FE75D68
:10086000FE4F259134913B8B2A8BFC01EE58FF4FB4
:10087000E491EC8BDF91CF911F910895CF92DF929D
:10088000EF92FF920F931F93CF93DF93CDB7DEB715
:1008900029970FB6F894DEBF0FBECDBF8C01DC01E7
:1008A00018968D919C911997892B09F481C10E940A
:1008B000E302F801C684D784E088F188DC01CB012B
:1008C0008C199D09AE09BF098C329140A105B10573
:1008D00070F3F894D80114968D919C9115979A8392
:1008E000898318960D90BC91A02D7D01EFEFEE1A33
:1008F000FE0A8C918987D8018C9152960D90BC91FB
:10090000A02D882309F41AC11B82AB32B10509F06E
:1009100059C09BB1F8018489982B98879BB1809529
:1009200089238F838F818C83898587FF02C0888587
:100930008C8358856F8149853C812B8189819A817F
:10094000D7015BB9262F3BB900C046FD252F6BB9F7
:1009500000C05BB9362F2BB900C045FD352F6BB9F0
:1009600000C05BB9262F3BB900C044FD252F6BB9F1
:1009700000C05BB9362F2BB900C043FD352F6BB9D2
:1009800000C05BB9262F3BB900C042FD252F6BB9D3
:1009900000C05BB9362F2BB900C041FD352F6BB9B4
:1009A00000C05BB9262F3BB900C040FD252F6BB9B5
:1009B00001975BB9362F2BB94D9147FD352F6BB998
:1009C00001F6B8C0A532B10509F059C095B1F801DA
:1009D0008489982B988795B1809589238F838F81FF
:1009E0008C83898587FF02C088858C8358856F81B9
:1009F00049853C812B8189819A81D70155B9262F60
:100A000035B900C046FD252F65B900C055B9362F50
:100A100025B900C045FD352F65B900C055B9262F51
:100A200035B900C044FD252F65B900C055B9362F32
:100A300025B900C043FD352F65B900C055B9262F33
:100A400035B900C042FD252F65B900C055B9362F14
:100A500025B900C041FD352F65B900C055B9262F15
:100A600035B900C040FD252F65B9019755B9362F1E
:100A700025B94D9147FD352F65B901F65BC09897B3
:100A800009F08CC098B1F8018489982B988798B1A7
:100A9000809589238F838F818C83898587FF02C00E
:100AA00088858C8358856F8149853C812B8189811C
:100AB0009A81D70158B9262F38B900C046FD252F95
:100AC00068B900C058B9362F28B900C045FD352F88
:100AD00068B900C058B9262F38B900C044FD252F89
:100AE00068B900C058B9362F28B900C043FD352F6A
:100AF00068B900C058B9262F38B900C042FD252F6B
:100B000068B900C058B9362F28B900C041FD352F4B
:100B100068B900C058B9262F38B900C040FD252F4C
:100B200068B9019758B9362F28B94D9147FD352F2F
:100B300068B901F649873C832B832EC09C91F8014C
:100B40008489982B98879C91809589238F838F81A6
:100B50008E8388E08D8358856F8149853D812E8104
:100B600089819A81F7015C9347FD252F2C93262FCD
:100B70003A9531F0441F6C9300C000C000C0F3CF21
:100B80006C93000038E04191019769F7F801B38B4D
:100B9000A28B49873D832E839A83898378940E9410
:100BA000E302D8011E966D937D938D939C9351978C
:100BB00029960FB6F894DEBF0FBECDBFDF91CF915F
:100BC0001F910F91FF90EF90DF90CF900895EF92DB
:100BD000FF920F931F93CF93DF93EC017B018885E6
:100BE0009985009711F00E94A8119D858A85981714
:100BF00019F084E090E002C083E090E08E9D8001D7
:100C00008F9D100D9E9D100D11241D830C83C80116
:100C10000E94131199878887009741F0A80160E02E
:100C200070E00E941813FB82EA8204C01D821C82BD
:100C30001B821A82DF91CF911F910F91FF90EF904D
:100C40000895CF93DF93EC018E8187FD07C061E0AB
:100C50000E94930260E08E810E94630281E089839A
:100C6000DF91CF9108958EBD00000DB407FEFDCF3A
:100C70008EB50895CF92DF92EF92FF920F931F935C
:100C8000CF93DF936C017A018B01C0E0D0E0CE15E9
:100C9000DF0589F0D8016D918D01D601ED91FC91B0
:100CA0000190F081E02DC6010995892B11F47E0198
:100CB00002C02196ECCFC701DF91CF911F910F9118
:100CC000FF90EF90DF90CF9008950E940A13CF938A
:100CD000DF93D82FC62F60E08AE00E9463028CE089
:100CE0000E943A0218161906D4F38D2F0E9433067B
:100CF0008C2F0E94330661E08AE0DF91CF910C9443
:100D00006302009769F0FC0101900020E9F7319738
:100D1000AF01481B590BBC018FE491E00C943A06DB
:100D200080E090E008958F929F92AF92BF92CF9211
:100D3000DF92EF92FF920E94E3024B015C018AE096
:100D4000C82ED12CE12CF12C0E94E302DC01CB0156
:100D500088199909AA09BB09883E9340A105B105E4
:100D600058F021E0C21AD108E108F10888EE880E97
:100D700083E0981EA11CB11CC114D104E104F1044C
:100D800019F7FF90EF90DF90CF90BF90AF909F90BA
:100D90008F900895FC01828193816817790770F51F
:100DA0008781882321F0489FA0011124452F858544
:100DB000928520853185891308C0CB01880F991F42
:100DC000680F791F620F731F0AC0660F771F660FC7
:100DD000771F620F731FDB01A80FB11D1C92828564
:100DE000DB01A80FB11D4C938385DB01A80FB11D5A
:100DF0001C928485FB01E80FF11D108208950F936A
:100E00001F93CF93DF938C01C0E0D0E0F801EC0F8B
:100E1000FD1F6491662371F0E0914F01F091500144
:100E20000190F081E02D8FE491E00995892B11F07C
:100E30002196ECCFCE01DF91CF911F910F910895B4
:100E4000CF93DF930E94FF06EC018CE291E00E94B9
:100E500081068C0F9D1FDF91CF9108958F929F92F5
:100E6000AF92BF920F931F93CF93DF93CDB7DEB7AF
:100E7000A1970FB6F894DEBF0FBECDBF19A24230C6
:100E800008F44AE08E010F5D1F4F842E912CA12C97
:100E9000B12CA50194010E94D710E62FB901CA0117
:100EA00001501109EA3014F4E05D01C0E95CD80199
:100EB000EC93232B242B252B61F7C8010E9481067C
:100EC000A1960FB6F894DEBF0FBECDBFDF91CF91D4
:100ED0001F910F91BF90AF909F908F900895CF92E8
:100EE000DF92EF92FF92CF93DF936B017C01E09151
:100EF0004F01F09150010190F081E02D6DE28FE4FF
:100F000091E00995EC0166277727CB016C197D09E3
:100F10008E099F094AE00E942E078C0F9D1FDF91CA
:100F2000CF91FF90EF90DF90CF900895CF93DF9314
:100F3000BC01990F880B990B97FF03C00E946F07A4
:100F400003C04AE00E942E07EC018CE291E00E946F
:100F500081068C0F9D1FDF91CF910895CF93C82FED
:100F6000C62B60E08AE00E9463028CE00E943A0295
:100F700018161906D4F38C2F0E94330680E00E94C5
:100F80003306C82F61E08AE00E9463028C2FCF9164
:100F90000895CF93DF93682F70E080E090E04AE0FF
:100FA0000E942E07EC018CE291E00E9481068C0FDA
:100FB0009D1FDF91CF910895CF93C82F823071F09C
:100FC0008330B1F08130F1F462E28DE00E94670677
:100FD00061EB8EE00E9467066BE31DC060E18DE06F
:100FE0000E94670667EA8EE00E94670662E613C009
:100FF00063E28DE00E9467066EE48EE00E94670661
:1010000064EC09C061E28DE00E94670662E68EE052
:101010000E94670666E78FE00E946706C093ED01B5
:10102000CF910895CF93C82F60E08AE00E946302B9
:101030008CE00E943A0218161906D4F38C2F0E94F5
:10104000330661E08AE0CF910C94630284E30E944E
:10105000120881E08093EC010895FC018091FD016C
:101060009091FE01892B21F421E0309749F413C0BF
:101070008091F9019091FA01309731F421E0FC015F
:101080008081882341F006C0BF010E941F1321E028
:10109000892B09F020E0822F0895EF92FF920F93A1
:1010A0001F93CF93DF93EC017B018A0188819981A3
:1010B000009729F02A813B8124173507F8F4B801FD
:1010C0006F5F7F4F0E944012009759F09983888389
:1010D0001B830A832C813D81232B81F4FC01108228
:1010E0000DC088819981009711F00E94A811198282
:1010F00018821D821C821B821A8207C01D830C83EA
:10110000B701888199810E942813CE01DF91CF9188
:101110001F910F91FF90EF900895CF93DF93CDB77C
:10112000DEB7C154D1090FB6F894DEBF0FBECDBFF4
:10113000789484B5826084BD84B5816084BD85B5B2
:10114000826085BD85B5816085BD80916E008160BE
:1011500080936E0010928100809181008260809364
:101160008100809181008160809381008091800066
:101170008160809380008091B10084608093B10091
:101180008091B00081608093B00080917A0084608B
:1011900080937A0080917A00826080937A008091B7
:1011A0007A008E7F80937A0080917A0080688093A5
:1011B0007A001092C100E0915F01F091600182E03D
:1011C0008083E0915B01F0915C011082E0915D0110
:1011D000F0915E0189E1808310926701E0916301E3
:1011E000F091640186E08083E0916101F0916201F9
:1011F000808180618083E0916101F0916201808152
:1012000088608083E0916101F09162018081806853
:101210008083E0916101F091620180818F7D808304
:101220001092ED011092EE0182E090E00E9496078C
:101230001FB7F89480913501811127C0E0E9F0E0F3
:101240008491ECE7F0E09491E82FF0E0EE0FFF1FBF
:10125000E859FF4FA591B491EC91E92321F461E0A5
:101260008AE00E94630261E08AE00E9493028CB5EA
:1012700080618CBD8CB580648CBD61E08DE00E9486
:10128000930261E08BE00E949302809135018F5FB1
:10129000809335011FBF60E082E00E94930261E00D
:1012A0008AE00E94630286E090E00197F1F760E037
:1012B0008AE00E94630280E190E00197F1F761E02B
:1012C0008AE00E9463028EE490E00197F1F760E00B
:1012D0008AE00E9463028CE00E943A021816190606
:1012E000D4F380E30E9433068CE00E943A02181681
:1012F0001906D4F361E08AE00E9463026EE280E0A6
:101300000E9467066EE281E00E94670666E082E066
:101310000E94670667E083E00E9467066DE386E04F
:101320000E94670666E087E00E94670665E088E045
:101330000E9467061091F1010091F001602F84E096
:101340000E946706612F85E00E9467060093F00106
:101350001093F1011091F201612F89E00E9467065C
:101360001093F2011091EF01612F8AE00E9467064D
:101370001093EF0168E08BE00E94670660E08CE06C
:101380000E9467068091ED010E94DC078091EE01CA
:10139000813011F467EC01C06AEC80E10E946706BD
:1013A00063E881E10E94670663E982E10E946706C3
:1013B00062E283E10E94670668EF84E10E946706AB
:1013C00065E385E10E94670667E086E10E946706A3
:1013D00060E287E10E94670668E188E10E94670693
:1013E00066E189E10E9467066CE68AE10E94670671
:1013F00063E48BE10E94670660E48CE10E9467066B
:1014000061E98DE10E94670667E88EE10E94670648
:101410006BE68FE10E9467066BEF80E20E94670631
:1014200066E581E20E94670660E182E20E9467064B
:1014300069EE83E20E9467066AE284E20E94670620
:1014400060E085E20E9467066FE186E20E9467061F
:1014500061E487E20E94670660E088E20E94670616
:1014600069E589E20E9467066FE78AE20E946706E3
:101470006FE38BE20E94670661E88CE20E946706D8
:1014800065E38DE20E94670669E08EE20E946706CE
:1014900082E08093EC010E94260800E010E00F5FDC
:1014A0001F4F093E23E0120721F160EC85E30E9403
:1014B000AE07982F9F719D3009F054C5083E134028
:1014C000C1F084EE93E00197F1F760EC85E30E94B0
:1014D000AE078F718351833008F435C586E30E94CF
:1014E00012088BE30E9412080E94260881E0809374
:1014F000EC0160E68EE30E94670610910101009105
:101500000001602F84E00E946706612F85E00E9441
:1015100067060093F0011093F10180E00E94DC0760
:1015200064E087E00E94670660EC8EE30E94670635
:1015300086ED90E00E94FF0660EC80E30E94AE071B
:101540000E94C90786EC90E00E94FF0660EC81E3F0
:101550000E94AE070E94C90784EB90E00E94FF063C
:1015600060EC85E30E94AE078F7190E00E949607C1
:101570008AE990E00E9420078EED91E090930301AC
:1015800080930201809169008C7F82608093690062
:10159000E89A84E192E00E94210684E192E00E94B0
:1015A0003E048FEF91E00E9421068FEF91E00E94B0
:1015B0003E0462E089E00E94930241E050E06EE167
:1015C00071E089EF91E00E944D08E12CF12C00E0E0
:1015D00010E00E151F0541F44FEFB80184E192E0D1
:1015E0000E94CA064FEF07C040E0B80184E192E0D4
:1015F0000E94CA0640E0B8018FEF91E00E94CA063F
:101600000F5F1F4F0432110521F784E192E00E9421
:101610003E048FEF91E00E943E040E9493063FEF4C
:10162000E31AF30A84E2E816F10489F644E2E42EB0
:10163000F12C03E210E00E151F0541F44FEFB80145
:1016400084E192E00E94CA064FEF07C040E0B80173
:1016500084E192E00E94CA0640E0B8018FEF91E079
:101660000E94CA060150110930F784E192E00E94FD
:101670003E048FEF91E00E943E040E949306E1E059
:10168000EE1AF108B1F680E291E00E9481068CE248
:1016900091E00E9481069EED292E91E0392E2FE3E4
:1016A000A22EB12C7E01F2E0EF0EF11C35E0832E6C
:1016B000912C80913401882309F4C4C0E8982DED61
:1016C00031E030930301209302011092340160EC69
:1016D0008BE30E94AE07982F9F7751F087FD08C0DB
:1016E00060E88FE30E94AE07182F89838E3310F0D5
:1016F000198232C060E08AE00E9463028CE00E949E
:101700003A0218161906D4F38FEF0E9433066701C8
:101710008C2D8E19811738F480E00E943306F60173
:1017200081936F01F5CF61E08AE00E94630260E877
:101730008FE30E94AE0721968FAF219760E88FE379
:101740000E94AE07982F9F7722969FAF2297982FDF
:10175000991F9927991F9FAF86E30E9412088AE379
:101760000E9412080E9426088981882309F45FC01C
:1017700086E191E00E9420078FAD811104C08BE0CB
:1017800091E00E94200785E091E00E94FF062296EA
:101790008FAD22979501281B310987FD3395C9012B
:1017A0000E9496078EEF90E00E94FF0621966FAD93
:1017B000219767FF09C070E07A9577FF02C06F5FDD
:1017C0007F4F7595679502C0669570E06A54710900
:1017D000072E000C880B990B0E946F078AEF90E090
:1017E0000E9420078FAD882311F189818823F9F0A9
:1017F0008DEE90E00E94FF0689810E94C90786EE67
:1018000090E00E942007C7010E9481068CE291E0CF
:101810000E948106F70101900020E9F73197AF019E
:101820004E195F09B70189EF91E00E944D0830928F
:10183000030120920201809169008C7F8260809375
:101840006900E89A89E00E943A0211E0892B09F0C8
:1018500010E0109345018FE291E00E942D0888234B
:1018600009F492C0111190C08091440181113BC0D4
:10187000C12CD12C20E034E64FEF50E0B60184E1DA
:1018800092E00E94A00384E192E00E943E040E9444
:1018900093063FEFC31AD30A84E2C816D10451F766
:1018A000C12CD12C20E030E040E450E0B6018FEFB5
:1018B00091E00E94A0039FEFC91AD90AE4E2CE1674
:1018C000D10481F78FEF91E00E943E040E94E30271
:1018D00060934001709341018093420190934301D2
:1018E00081E0809344010E94E302409040015090C7
:1018F00041016090420170904301A3019201205880
:10190000354E494F5F4F261737074807590760F58F
:10191000C12CD12C20E030E040E450E0B60184E15D
:1019200092E00E94A003FFEFCF1ADF0A24E2C21662
:10193000D10481F784E192E00E943E04C12CD12CB5
:1019400020E030E040E450E0B6018FEF91E00E94EB
:10195000A0033FEFC31AD30A84E2C816D10481F76B
:101960008FEF91E00E943E040E94E302E0EC4E0EF5
:10197000E7E25E1EE9E06E1E711C46165706680619
:10198000790610F4109244018FE291E00E942D0834
:10199000882309F493C0112309F490C08091440175
:1019A00081113BC0C12CD12C20E034E64FEF50E038
:1019B000B60184E192E00E94A00384E192E00E94DB
:1019C0003E040E949306FFEFCF1ADF0A24E2C216FC
:1019D000D10451F7C12CD12C20E030E04FEF50E082
:1019E000B6018FEF91E00E94A0033FEFC31AD30A24
:1019F00084E2C816D10481F78FEF91E00E943E0483
:101A00000E94E30260934001709341018093420180
:101A10009093430181E0809344010E94E30240904F
:101A20004001509041016090420170904301A30138
:101A300092012058354E494F5F4F26173707480708
:101A4000590760F5C12CD12C20E030E04FEF50E079
:101A5000B6018FEF91E00E94A0039FEFC91AD90A47
:101A6000E4E2CE16D10481F78FEF91E00E943E04AC
:101A7000C12CD12C20E030E04FEF50E0B60184E1E2
:101A800092E00E94A003FFEFCF1ADF0A24E2C21601
:101A9000D10481F784E192E00E943E040E94E302B7
:101AA00030EC430E37E2531E39E0631E711C4616BC
:101AB00057066806790610F41092440181E391E01C
:101AC0000E942D08882309F492C0111190C08091C2
:101AD000440181113BC0C12CD12C20E030E040E416
:101AE00050E0B60184E192E00E94A0038FEFC81A93
:101AF000D80A94E2C916D10481F784E192E00E94E9
:101B00003E04C12CD12C20E034E64FEF50E0B6016A
:101B10008FEF91E00E94A0038FEF91E00E943E04BE
:101B20000E949306EFEFCE1ADE0AF4E2CF16D1043C
:101B300051F70E94E302609340017093410180934A
:101B400042019093430181E0809344010E94E302AB
:101B500040904001509041016090420170904301DB
:101B6000A30192012058354E494F5F4F2617370782
:101B70004807590760F5C12CD12C20E030E040E443
:101B800050E0B60184E192E00E94A0032FEFC21A58
:101B9000D20A34E2C316D10481F784E192E00E94B4
:101BA0003E04C12CD12C20E030E040E450E0B601EE
:101BB0008FEF91E00E94A0038FEFC81AD80A94E239
:101BC000C916D10481F78FEF91E00E943E040E9474
:101BD000E302E0EC4E0EE7E25E1EE9E06E1E711CD1
:101BE000461657066806790610F41092440181E300
:101BF00091E00E942D08882309F493C0112309F471
:101C000090C08091440181113BC0C12CD12C20E0B7
:101C100030E04FEF50E0B60184E192E00E94A00373
:101C2000FFEFCF1ADF0A24E2C216D10481F784E164
:101C300092E00E943E04C12CD12C20E034E64FEF0C
:101C400050E0B6018FEF91E00E94A0038FEF91E08A
:101C50000E943E040E9493063FEFC31AD30A84E217
:101C6000C816D10451F70E94E302609340017093BB
:101C70004101809342019093430181E080934401AC
:101C80000E94E30240904001509041016090420167
:101C900070904301A30192012058354E494F5F4F88
:101CA000261737074807590760F5C12CD12C20E0CB
:101CB00030E04FEF50E0B60184E192E00E94A003D3
:101CC0009FEFC91AD90AE4E2CE16D10481F784E164
:101CD00092E00E943E04C12CD12C20E030E04FEF76
:101CE00050E0B6018FEF91E00E94A003FFEFCF1A02
:101CF000DF0A24E2C216D10481F78FEF91E00E943F
:101D00003E040E94E30230EC430E37E2531E39E0FA
:101D1000631E711C461657066806790610F4109269
:101D200044018EE191E00E942D08882309F4D2C07D
:101D30001111D0C00E94E30240903C0150903D013F
:101D400060903E0170903F01930182010056194757
:101D50002E4F3F4F061717072807390770F40E94C8
:101D6000E302930182010051164B2D4F3F4F601744
:101D700071078207930708F427C10E94E302E0EE8F
:101D80004E0EE3E95E1EE4E06E1E711C4616570619
:101D90006806790608F418C10E94E30240903C01ED
:101DA00050903D0160903E0170903F01930182018F
:101DB0000051164B2D4F3F4F0617170728073907BD
:101DC00008F4D7C00E94E302F0E34F0EF7E55F1E70
:101DD000F5E06F1E711C461657066806790608F472
:101DE000F7C00E94E30200913C0110913D01209157
:101DF0003E0130913F01005C1D4B204F3F4F0617C5
:101E000017072807390750F40E94E30260933C014A
:101E100070933D0180933E0190933F0140903701C4
:101E2000509038016090390170903A010E94E302AD
:101E3000641575058605970550F40E94E3026093CA
:101E40003701709338018093390190933A010E94D1
:101E5000E30200913701109138012091390130914E
:101E60003A0108571C4E2F4F3F4F061717072807F8
:101E7000390778F4809136018F5F809336010E9494
:101E8000E302609337017093380180933901909396
:101E90003A01C12CD12C44E6B60184E192E00E94C3
:101EA000CA0644E6B6018FEF91E00E94CA0680910F
:101EB0003B0181116CC03FEFC31AD30A84E2C816FC
:101EC000D10449F784E192E00E943E048FEF91E053
:101ED0000E943E048EE191E00E942D08882381F14A
:101EE00080914501882361F1C12CD12C20E030E0A4
:101EF0004FEF50E0B60184E192E00E94A0039FEF13
:101F0000C91AD90AE4E2CE16D10481F784E192E03D
:101F10000E943E04C12CD12C20E030E04FEF50E075
:101F2000B6018FEF91E00E94A003FFEFCF1ADF0A06
:101F300024E2C216D10481F78FEF91E00E943E04A3
:101F40000E94AA01B6CB82E00E943A02892BD9F303
:101F500082E00E943A02892BD9F760EC8AE30E9462
:101F6000AE07BCCA813109F09ACA8AE30E941208FE
:101F700096CA0E94E30293018201005C124F2C4F2B
:101F80003F4F601771078207930710F11BCFC601FF
:101F9000B4010E94C310892B09F08DCFC114D10464
:101FA00009F489CF23E2C216D10409F484CF40ECAE
:101FB000B60184E192E00E94CA0640ECB6018FEFC0
:101FC00091E00E94CA0677CF81E080933B01E4CE86
:101FD00010923B0106CF8091F3019091F4010E9491
:101FE000A8118091F9019091FA010E94A8118FEF38
:101FF00091E00E94CF0284E192E00C94CF02CF9353
:10200000DF93EFE4F1E01382128288EE93E0A0E028
:10201000B0E084839583A683B78380E191E09183C8
:10202000808385EC90E09587848784EC90E09787A7
:10203000868780EC90E0918B808B81EC90E0938B95
:10204000828B82EC90E0958B848B86EC90E0978B72
:10205000868B118E128E138E148EE4E1F2E01182C3
:1020600017821186108616861786108A118AC1E09B
:10207000C587C2871386D2E0D487C08364E270E04C
:10208000CF010E94E70565E084E192E00E940C0424
:10209000EFEFF1E0118217821186108616861786FF
:1020A000108A118AC587C2871386D487C08364E2E9
:1020B00070E0CF010E94E70566E08FEF91E00E949B
:1020C0000C04E9EFF1E01182108213821282158272
:1020D000148241E050E06EE171E0CF010E944D08B2
:1020E000E3EFF1E0118210821382128215821482D2
:1020F00040E050E06EE271E0CF010E944D08ECEE4E
:10210000F1E01182138285EB848387E485838FEF6E
:102110008683DF91CF9108952F923F924F925F92E5
:102120006F927F928F929F92AF92BF92CF92DF92E7
:10213000EF92FF920F931F93CF93DF93CDB7DEB74C
:10214000CA1BDB0B0FB6F894DEBF0FBECDBF0994E0
:102150002A88398848885F846E847D848C849B8437
:10216000AA84B984C884DF80EE80FD800C811B8145
:10217000AA81B981CE0FD11D0FB6F894DEBF0FBE74
:10218000CDBFED01089597FB072E16F4009407D0FC
:1021900077FD09D00E94F91007FC05D03EF4909518
:1021A00081959F4F0895709561957F4F0895A1E2A5
:1021B0001A2EAA1BBB1BFD010DC0AA1FBB1FEE1FC1
:1021C000FF1FA217B307E407F50720F0A21BB30B0C
:1021D000E40BF50B661F771F881F991F1A9469F788
:1021E00060957095809590959B01AC01BD01CF01E4
:1021F0000895AA1BBB1B51E107C0AA1FBB1FA6174E
:10220000B70710F0A61BB70B881F991F5A95A9F79F
:1022100080959095BC01CD010895EE0FFF1F0590AC
:10222000F491E02D0994CF93DF938230910510F45F
:1022300082E090E0E0912B02F0912C0220E030E06F
:10224000C0E0D0E0309711F1408151814817590723
:10225000C0F04817590761F482819381209719F0E3
:102260009B838A832BC090932C0280932B0226C0E1
:102270002115310519F04217530718F49A01BE01D0
:10228000DF01EF010280F381E02DDCCF2115310564
:1022900009F1281B390B2430310590F412968D91E9
:1022A0009C9113976115710521F0FB019383828343
:1022B00004C090932C0280932B02FD01329644C0FF
:1022C000FD01E20FF31F81939193225031092D9369
:1022D0003C933AC02091290230912A02232B41F4E9
:1022E000209108013091090130932A02209329029C
:1022F00020910601309107012115310541F42DB7D8
:102300003EB740910A0150910B01241B350BE0911F
:102310002902F0912A02E217F307A0F42E1B3F0BCB
:102320002817390778F0AC014E5F5F4F2417350747
:1023300048F04E0F5F1F50932A0240932902819369
:10234000919302C0E0E0F0E0CF01DF91CF910895DA
:102350000F931F93CF93DF93009709F48CC0FC0178
:1023600032971382128200912B0210912C020115D8
:10237000110581F420813181820F931F2091290260
:1023800030912A022817390779F5F0932A02E09351
:10239000290271C0D80140E050E0AE17BF0750F4E9
:1023A00012962D913C911397AD012115310509F13C
:1023B000D901F3CF9D01DA013383228360817181DA
:1023C000860F971F8217930769F4EC0128813981E2
:1023D000260F371F2E5F3F4F318320838A819B81D9
:1023E00093838283452B29F4F0932C02E0932B02F4
:1023F00042C01396FC93EE931297ED0149915991C7
:102400009E01240F351FE217F30771F4808191813B
:10241000840F951F029611969C938E9382819381CF
:1024200013969C938E931297E0E0F0E0D8011296F9
:102430008D919C911397009719F0F8018C01F6CFBC
:102440008D919C9198012E5F3F4F820F931F209199
:10245000290230912A022817390769F4309729F4A4
:1024600010922C0210922B0202C01382128210933F
:102470002A0200932902DF91CF911F910F910895B5
:10248000A0E0B0E0E6E4F2E10C949010EC010097DB
:1024900021F4CB010E941311B8C0FC01E60FF71F15
:1024A0009C0122503109E217F30708F4ACC0D901AE
:1024B0000D911C91119706171707B0F00530110503
:1024C00008F49FC0C80104978617970708F499C0BD
:1024D00002501109061B170B019311936D937C9306
:1024E000CF010E94A8118DC05B01A01AB10A4C0156
:1024F000800E911EA0912B02B0912C0240E050E082
:10250000E12CF12C109709F44AC0A815B905D1F5B2
:102510006D907C901197630182E0C80ED11CCA14A3
:10252000DB0480F1A3014A195B096A0182E0C80E4D
:10253000D11C1296BC9012971396AC91B5E0CB16B5
:10254000D10440F0B282A38351834083D9016D93BB
:102550007C930AC00E5F1F4FC301800F911FF901CA
:1025600091838083EB2DFA2FE114F10431F0D70130
:102570001396FC93EE93129744C0F0932C02E093D1
:102580002B023FC08D919C9111974817590708F471
:10259000AC017D0112960D90BC91A02DB3CF80911E
:1025A000290290912A0288159905E1F446175707E8
:1025B000C8F48091060190910701009741F48DB70E
:1025C0009EB740910A0150910B01841B950BE817AF
:1025D000F907C8F4F0932A02E0932902F901718304
:1025E00060830FC0CB010E9413117C01009759F04A
:1025F000A801BE010E940F13CE010E94A811C701BD
:1026000004C0CE0102C080E090E0CDB7DEB7EEE0BE
:102610000C94AC1081E090E0F8940C942F13FB0123
:10262000DC0102C001900D9241505040D8F708954E
:10263000DC0101C06D9341505040E0F70895FB016B
:10264000DC018D91019080190110D9F3990B089547
:10265000FB01DC0101900D920020E1F7089510E0EC
:10266000CAEAD0E004C0FE010E940D112196CB3AC7
:08267000D107C9F7F894FFCF70
:10267800C70ADD01DD0100002D0280000000000016
:1026880041013A06D90088010A01E800FC007A00F5
:102698005761676F6E7320726F6C6C000D0A007162
:0426A80000610000CD
:00000001FF
